{
  "contractName": "MintGoldDustSetPrice",
  "abi": [
    {
      "inputs": [
        {
          "internalType": "string",
          "name": "_reason",
          "type": "string"
        }
      ],
      "name": "AddressUnauthorized",
      "type": "error"
    },
    {
      "inputs": [],
      "name": "InvalidAmount",
      "type": "error"
    },
    {
      "inputs": [],
      "name": "InvalidAmountForThisPurchase",
      "type": "error"
    },
    {
      "inputs": [
        {
          "internalType": "address",
          "name": "_contractAddress",
          "type": "address"
        }
      ],
      "name": "ItemIsAlreadyListed",
      "type": "error"
    },
    {
      "inputs": [
        {
          "internalType": "address",
          "name": "_contractAddress",
          "type": "address"
        }
      ],
      "name": "ItemIsNotListed",
      "type": "error"
    },
    {
      "inputs": [
        {
          "internalType": "uint256",
          "name": "tokenId",
          "type": "uint256"
        },
        {
          "internalType": "address",
          "name": "market",
          "type": "address"
        },
        {
          "internalType": "address",
          "name": "contractAddress",
          "type": "address"
        },
        {
          "internalType": "address",
          "name": "seller",
          "type": "address"
        },
        {
          "internalType": "address",
          "name": "msgSender",
          "type": "address"
        }
      ],
      "name": "ItemIsNotListedBySeller",
      "type": "error"
    },
    {
      "inputs": [],
      "name": "LessItemsListedThanTheRequiredAmount",
      "type": "error"
    },
    {
      "inputs": [],
      "name": "ListPriceMustBeGreaterThanZero",
      "type": "error"
    },
    {
      "inputs": [],
      "name": "MustBeERC721OrERC1155",
      "type": "error"
    },
    {
      "inputs": [],
      "name": "PurchaseOfERC1155InAuctionThatCoverAllListedItems",
      "type": "error"
    },
    {
      "anonymous": false,
      "inputs": [
        {
          "indexed": false,
          "internalType": "uint8",
          "name": "version",
          "type": "uint8"
        }
      ],
      "name": "Initialized",
      "type": "event"
    },
    {
      "anonymous": false,
      "inputs": [
        {
          "indexed": true,
          "internalType": "uint256",
          "name": "tokenId",
          "type": "uint256"
        },
        {
          "indexed": false,
          "internalType": "address",
          "name": "seller",
          "type": "address"
        },
        {
          "indexed": false,
          "internalType": "uint256",
          "name": "price",
          "type": "uint256"
        },
        {
          "indexed": false,
          "internalType": "address",
          "name": "contractAddress",
          "type": "address"
        }
      ],
      "name": "MintGoldDustNftListedItemUpdated",
      "type": "event"
    },
    {
      "anonymous": false,
      "inputs": [
        {
          "indexed": true,
          "internalType": "uint256",
          "name": "tokenId",
          "type": "uint256"
        },
        {
          "indexed": false,
          "internalType": "address",
          "name": "seller",
          "type": "address"
        },
        {
          "indexed": false,
          "internalType": "uint256",
          "name": "price",
          "type": "uint256"
        },
        {
          "indexed": false,
          "internalType": "uint256",
          "name": "amount",
          "type": "uint256"
        },
        {
          "indexed": false,
          "internalType": "address",
          "name": "contractAddress",
          "type": "address"
        }
      ],
      "name": "MintGoldDustNftListedToSetPrice",
      "type": "event"
    },
    {
      "anonymous": false,
      "inputs": [
        {
          "indexed": true,
          "internalType": "uint256",
          "name": "saleId",
          "type": "uint256"
        },
        {
          "indexed": true,
          "internalType": "uint256",
          "name": "tokenId",
          "type": "uint256"
        },
        {
          "indexed": false,
          "internalType": "address",
          "name": "seller",
          "type": "address"
        },
        {
          "indexed": false,
          "internalType": "address",
          "name": "newOwner",
          "type": "address"
        },
        {
          "indexed": false,
          "internalType": "uint256",
          "name": "buyPrice",
          "type": "uint256"
        },
        {
          "indexed": false,
          "internalType": "uint256",
          "name": "sellerAmount",
          "type": "uint256"
        },
        {
          "indexed": false,
          "internalType": "uint256",
          "name": "tokenAmountSold",
          "type": "uint256"
        },
        {
          "indexed": false,
          "internalType": "bool",
          "name": "isERC721",
          "type": "bool"
        }
      ],
      "name": "MintGoldDustNftPurchasedPrimaryMarket",
      "type": "event"
    },
    {
      "anonymous": false,
      "inputs": [
        {
          "indexed": true,
          "internalType": "uint256",
          "name": "saleId",
          "type": "uint256"
        },
        {
          "indexed": true,
          "internalType": "uint256",
          "name": "tokenId",
          "type": "uint256"
        },
        {
          "indexed": false,
          "internalType": "address",
          "name": "seller",
          "type": "address"
        },
        {
          "indexed": false,
          "internalType": "address",
          "name": "newOwner",
          "type": "address"
        },
        {
          "indexed": false,
          "internalType": "uint256",
          "name": "buyPrice",
          "type": "uint256"
        },
        {
          "indexed": false,
          "internalType": "uint256",
          "name": "sellerAmount",
          "type": "uint256"
        },
        {
          "indexed": false,
          "internalType": "uint256",
          "name": "tokenAmountSold",
          "type": "uint256"
        },
        {
          "indexed": false,
          "internalType": "bool",
          "name": "isERC721",
          "type": "bool"
        }
      ],
      "name": "MintGoldDustNftPurchasedSecondaryMarket",
      "type": "event"
    },
    {
      "anonymous": false,
      "inputs": [
        {
          "indexed": true,
          "internalType": "uint256",
          "name": "saleId",
          "type": "uint256"
        },
        {
          "indexed": false,
          "internalType": "address",
          "name": "collaborator",
          "type": "address"
        },
        {
          "indexed": false,
          "internalType": "uint256",
          "name": "amount",
          "type": "uint256"
        }
      ],
      "name": "NftPurchasedCollaboratorAmount",
      "type": "event"
    },
    {
      "anonymous": false,
      "inputs": [
        {
          "indexed": true,
          "internalType": "uint256",
          "name": "tokenId",
          "type": "uint256"
        },
        {
          "indexed": false,
          "internalType": "address",
          "name": "seller",
          "type": "address"
        },
        {
          "indexed": false,
          "internalType": "address",
          "name": "contractAddress",
          "type": "address"
        }
      ],
      "name": "NftQuantityDelisted",
      "type": "event"
    },
    {
      "anonymous": false,
      "inputs": [
        {
          "indexed": false,
          "internalType": "address",
          "name": "account",
          "type": "address"
        }
      ],
      "name": "Paused",
      "type": "event"
    },
    {
      "anonymous": false,
      "inputs": [
        {
          "indexed": false,
          "internalType": "address",
          "name": "account",
          "type": "address"
        }
      ],
      "name": "Unpaused",
      "type": "event"
    },
    {
      "inputs": [
        {
          "internalType": "uint256",
          "name": "",
          "type": "uint256"
        }
      ],
      "name": "collectorMintIdUsed",
      "outputs": [
        {
          "internalType": "bool",
          "name": "",
          "type": "bool"
        }
      ],
      "stateMutability": "view",
      "type": "function"
    },
    {
      "inputs": [
        {
          "components": [
            {
              "internalType": "address",
              "name": "contractAddress",
              "type": "address"
            },
            {
              "internalType": "string",
              "name": "tokenURI",
              "type": "string"
            },
            {
              "internalType": "uint256",
              "name": "royalty",
              "type": "uint256"
            },
            {
              "internalType": "bytes",
              "name": "memoir",
              "type": "bytes"
            },
            {
              "internalType": "address[]",
              "name": "collaborators",
              "type": "address[]"
            },
            {
              "internalType": "uint256[]",
              "name": "ownersPercentage",
              "type": "uint256[]"
            },
            {
              "internalType": "uint256",
              "name": "amount",
              "type": "uint256"
            },
            {
              "internalType": "address",
              "name": "artistSigner",
              "type": "address"
            },
            {
              "internalType": "uint256",
              "name": "price",
              "type": "uint256"
            },
            {
              "internalType": "uint256",
              "name": "collectorMintId",
              "type": "uint256"
            }
          ],
          "internalType": "struct MintGoldDustMarketplace.CollectorMintDTO",
          "name": "_collectorMintDTO",
          "type": "tuple"
        },
        {
          "internalType": "bytes32",
          "name": "_eip712HashOffChain",
          "type": "bytes32"
        },
        {
          "internalType": "bytes",
          "name": "_signature",
          "type": "bytes"
        },
        {
          "internalType": "bytes",
          "name": "_mintGoldDustSignature",
          "type": "bytes"
        },
        {
          "internalType": "uint256",
          "name": "_amountToBuy",
          "type": "uint256"
        }
      ],
      "name": "collectorMintPurchase",
      "outputs": [],
      "stateMutability": "payable",
      "type": "function"
    },
    {
      "inputs": [
        {
          "components": [
            {
              "internalType": "uint256",
              "name": "tokenId",
              "type": "uint256"
            },
            {
              "internalType": "uint256",
              "name": "amount",
              "type": "uint256"
            },
            {
              "internalType": "address",
              "name": "contractAddress",
              "type": "address"
            }
          ],
          "internalType": "struct MintGoldDustSetPrice.DelistDTO",
          "name": "_delistDTO",
          "type": "tuple"
        }
      ],
      "name": "delistNft",
      "outputs": [],
      "stateMutability": "nonpayable",
      "type": "function"
    },
    {
      "inputs": [
        {
          "internalType": "address",
          "name": "",
          "type": "address"
        },
        {
          "internalType": "uint256",
          "name": "",
          "type": "uint256"
        },
        {
          "internalType": "address",
          "name": "",
          "type": "address"
        }
      ],
      "name": "idMarketItemsByContractByOwner",
      "outputs": [
        {
          "internalType": "uint256",
          "name": "tokenId",
          "type": "uint256"
        },
        {
          "internalType": "address",
          "name": "seller",
          "type": "address"
        },
        {
          "internalType": "uint256",
          "name": "price",
          "type": "uint256"
        },
        {
          "internalType": "bool",
          "name": "isERC721",
          "type": "bool"
        },
        {
          "internalType": "uint256",
          "name": "tokenAmount",
          "type": "uint256"
        },
        {
          "components": [
            {
              "internalType": "uint256",
              "name": "auctionId",
              "type": "uint256"
            },
            {
              "internalType": "uint256",
              "name": "startTime",
              "type": "uint256"
            },
            {
              "internalType": "uint256",
              "name": "endTime",
              "type": "uint256"
            },
            {
              "internalType": "address",
              "name": "highestBidder",
              "type": "address"
            },
            {
              "internalType": "uint256",
              "name": "highestBid",
              "type": "uint256"
            },
            {
              "internalType": "bool",
              "name": "ended",
              "type": "bool"
            }
          ],
          "internalType": "struct MintGoldDustMarketplace.AuctionProps",
          "name": "auctionProps",
          "type": "tuple"
        }
      ],
      "stateMutability": "view",
      "type": "function"
    },
    {
      "inputs": [
        {
          "internalType": "address",
          "name": "_mintGoldDustCompany",
          "type": "address"
        },
        {
          "internalType": "address payable",
          "name": "_mintGoldDustERC721Address",
          "type": "address"
        },
        {
          "internalType": "address payable",
          "name": "_mintGoldDustERC1155Address",
          "type": "address"
        }
      ],
      "name": "initializeChild",
      "outputs": [],
      "stateMutability": "nonpayable",
      "type": "function"
    },
    {
      "inputs": [
        {
          "internalType": "address",
          "name": "",
          "type": "address"
        },
        {
          "internalType": "uint256",
          "name": "",
          "type": "uint256"
        }
      ],
      "name": "isSecondarySale",
      "outputs": [
        {
          "internalType": "address",
          "name": "owner",
          "type": "address"
        },
        {
          "internalType": "bool",
          "name": "sold",
          "type": "bool"
        },
        {
          "internalType": "uint256",
          "name": "amount",
          "type": "uint256"
        }
      ],
      "stateMutability": "view",
      "type": "function"
    },
    {
      "inputs": [],
      "name": "itemsSold",
      "outputs": [
        {
          "internalType": "uint256",
          "name": "_value",
          "type": "uint256"
        }
      ],
      "stateMutability": "view",
      "type": "function"
    },
    {
      "inputs": [
        {
          "internalType": "uint256",
          "name": "_tokenId",
          "type": "uint256"
        },
        {
          "internalType": "uint256",
          "name": "_amount",
          "type": "uint256"
        },
        {
          "internalType": "address",
          "name": "_contractAddress",
          "type": "address"
        },
        {
          "internalType": "uint256",
          "name": "_price",
          "type": "uint256"
        }
      ],
      "name": "list",
      "outputs": [],
      "stateMutability": "nonpayable",
      "type": "function"
    },
    {
      "inputs": [
        {
          "internalType": "address",
          "name": "operator",
          "type": "address"
        },
        {
          "internalType": "address",
          "name": "from",
          "type": "address"
        },
        {
          "internalType": "uint256[]",
          "name": "ids",
          "type": "uint256[]"
        },
        {
          "internalType": "uint256[]",
          "name": "values",
          "type": "uint256[]"
        },
        {
          "internalType": "bytes",
          "name": "data",
          "type": "bytes"
        }
      ],
      "name": "onERC1155BatchReceived",
      "outputs": [
        {
          "internalType": "bytes4",
          "name": "",
          "type": "bytes4"
        }
      ],
      "stateMutability": "pure",
      "type": "function"
    },
    {
      "inputs": [
        {
          "internalType": "address",
          "name": "operator",
          "type": "address"
        },
        {
          "internalType": "address",
          "name": "from",
          "type": "address"
        },
        {
          "internalType": "uint256",
          "name": "id",
          "type": "uint256"
        },
        {
          "internalType": "uint256",
          "name": "value",
          "type": "uint256"
        },
        {
          "internalType": "bytes",
          "name": "data",
          "type": "bytes"
        }
      ],
      "name": "onERC1155Received",
      "outputs": [
        {
          "internalType": "bytes4",
          "name": "",
          "type": "bytes4"
        }
      ],
      "stateMutability": "pure",
      "type": "function"
    },
    {
      "inputs": [
        {
          "internalType": "address",
          "name": "operator",
          "type": "address"
        },
        {
          "internalType": "address",
          "name": "from",
          "type": "address"
        },
        {
          "internalType": "uint256",
          "name": "tokenId",
          "type": "uint256"
        },
        {
          "internalType": "bytes",
          "name": "data",
          "type": "bytes"
        }
      ],
      "name": "onERC721Received",
      "outputs": [
        {
          "internalType": "bytes4",
          "name": "",
          "type": "bytes4"
        }
      ],
      "stateMutability": "pure",
      "type": "function"
    },
    {
      "inputs": [],
      "name": "pauseContract",
      "outputs": [],
      "stateMutability": "nonpayable",
      "type": "function"
    },
    {
      "inputs": [],
      "name": "paused",
      "outputs": [
        {
          "internalType": "bool",
          "name": "",
          "type": "bool"
        }
      ],
      "stateMutability": "view",
      "type": "function"
    },
    {
      "inputs": [
        {
          "components": [
            {
              "internalType": "uint256",
              "name": "tokenId",
              "type": "uint256"
            },
            {
              "internalType": "uint256",
              "name": "amount",
              "type": "uint256"
            },
            {
              "internalType": "address",
              "name": "contractAddress",
              "type": "address"
            },
            {
              "internalType": "address",
              "name": "seller",
              "type": "address"
            }
          ],
          "internalType": "struct MintGoldDustMarketplace.SaleDTO",
          "name": "_saleDTO",
          "type": "tuple"
        }
      ],
      "name": "purchaseNft",
      "outputs": [],
      "stateMutability": "payable",
      "type": "function"
    },
    {
      "inputs": [
        {
          "internalType": "address",
          "name": "_mintGoldDustMarketplace",
          "type": "address"
        }
      ],
      "name": "setMintGoldDustMarketplace",
      "outputs": [],
      "stateMutability": "nonpayable",
      "type": "function"
    },
    {
      "inputs": [
        {
          "internalType": "address",
          "name": "_contractAddress",
          "type": "address"
        },
        {
          "internalType": "uint256",
          "name": "_tokenId",
          "type": "uint256"
        },
        {
          "internalType": "address",
          "name": "_owner",
          "type": "address"
        },
        {
          "internalType": "bool",
          "name": "_sold",
          "type": "bool"
        },
        {
          "internalType": "uint256",
          "name": "_amount",
          "type": "uint256"
        }
      ],
      "name": "setSecondarySale",
      "outputs": [],
      "stateMutability": "nonpayable",
      "type": "function"
    },
    {
      "inputs": [
        {
          "internalType": "bytes4",
          "name": "interfaceId",
          "type": "bytes4"
        }
      ],
      "name": "supportsInterface",
      "outputs": [
        {
          "internalType": "bool",
          "name": "",
          "type": "bool"
        }
      ],
      "stateMutability": "pure",
      "type": "function"
    },
    {
      "inputs": [],
      "name": "unpauseContract",
      "outputs": [],
      "stateMutability": "nonpayable",
      "type": "function"
    },
    {
      "inputs": [
        {
          "internalType": "uint256",
          "name": "_tokenId",
          "type": "uint256"
        },
        {
          "internalType": "uint256",
          "name": "_price",
          "type": "uint256"
        },
        {
          "internalType": "address",
          "name": "_contractAddress",
          "type": "address"
        },
        {
          "internalType": "address",
          "name": "_seller",
          "type": "address"
        }
      ],
      "name": "updateListedNft",
      "outputs": [],
      "stateMutability": "nonpayable",
      "type": "function"
    },
    {
      "inputs": [
        {
          "internalType": "address",
          "name": "_contractAddress",
          "type": "address"
        },
        {
          "internalType": "uint256",
          "name": "_tokenId",
          "type": "uint256"
        },
        {
          "internalType": "uint256",
          "name": "_amount",
          "type": "uint256"
        }
      ],
      "name": "updateSecondarySaleAmount",
      "outputs": [],
      "stateMutability": "nonpayable",
      "type": "function"
    },
    {
      "inputs": [
        {
          "internalType": "address",
          "name": "_contractAddress",
          "type": "address"
        },
        {
          "internalType": "uint256",
          "name": "_tokenId",
          "type": "uint256"
        },
        {
          "internalType": "bool",
          "name": "_sold",
          "type": "bool"
        }
      ],
      "name": "updateSecondarySaleSold",
      "outputs": [],
      "stateMutability": "nonpayable",
      "type": "function"
    }
  ],
  "bytecode": "608060405234801561001057600080fd5b50614795806100206000396000f3fe60806040526004361061012a5760003560e01c806360e7d0e8116100ab578063bc197c811161006f578063bc197c81146103a0578063d55755c5146103cf578063e95ce3ea146103ef578063ef3790db14610529578063f23a6e6114610549578063ff8a166c1461057657600080fd5b806360e7d0e8146103135780638ad284d814610333578063913e0a4814610353578063ae93cabe14610378578063b33712c51461038b57600080fd5b8063439766ce116100f2578063439766ce1461021c578063492bb9a51461023157806356e3319d146102515780635c975abb146102815780635e50314a1461029957600080fd5b806301ffc9a71461012f5780630319a381146101755780631502b23b14610197578063150b7a02146101b75780632fa35030146101fc575b600080fd5b34801561013b57600080fd5b5061016061014a366004613959565b6001600160e01b0319166301ffc9a760e01b1490565b60405190151581526020015b60405180910390f35b34801561018157600080fd5b506101956101903660046139aa565b610589565b005b3480156101a357600080fd5b506101956101b23660046139c7565b610647565b3480156101c357600080fd5b506101e36101d2366004613a4e565b630a85bd0160e11b95945050505050565b6040516001600160e01b0319909116815260200161016c565b34801561020857600080fd5b50610195610217366004613ac0565b61073a565b34801561022857600080fd5b506101956107a2565b34801561023d57600080fd5b5061019561024c366004613b03565b61087f565b34801561025d57600080fd5b5061016061026c366004613b5e565b60ce6020526000908152604090205460ff1681565b34801561028d57600080fd5b5060335460ff16610160565b3480156102a557600080fd5b506102ee6102b4366004613b77565b60cd602090815260009283526040808420909152908252902080546001909101546001600160a01b03821691600160a01b900460ff169083565b604080516001600160a01b03909416845291151560208401529082015260600161016c565b34801561031f57600080fd5b5061019561032e366004613ba3565b610919565b34801561033f57600080fd5b5061019561034e366004613c76565b610982565b34801561035f57600080fd5b5060975461036a9081565b60405190815260200161016c565b610195610386366004613cd7565b610c4c565b34801561039757600080fd5b50610195610c57565b3480156103ac57600080fd5b506101e36103bb366004613d8f565b63bc197c8160e01b98975050505050505050565b3480156103db57600080fd5b506101956103ea366004613e4d565b610d32565b3480156103fb57600080fd5b506104ab61040a366004613e97565b60cc602090815260009384526040808520825292845282842081529083529181902080546001820154600283015460038401546004850154865160c0810188526005870154815260068701549881019890985260078601549688019690965260088501546001600160a01b03908116606089015260098601546080890152600a9095015460ff908116151560a0890152939694909216949093929091169186565b604080519687526001600160a01b0395861660208089019190915287820195909552921515606080880191909152608080880193909352815160a0808901919091529482015160c08801529281015160e08701529182015190931661010085015291820151610120840152015115156101408201526101600161016c565b34801561053557600080fd5b50610195610544366004613ece565b610dec565b34801561055557600080fd5b506101e3610564366004613f0e565b63f23a6e6160e01b9695505050505050565b6101956105843660046140ea565b610f03565b60995460408051638da5cb5b60e01b8152905133926001600160a01b031691638da5cb5b9160048083019260209291908290030181865afa1580156105d2573d6000803e3d6000fd5b505050506040513d601f19601f820116820180604052508101906105f6919061426d565b6001600160a01b0316146106255760405162461bcd60e51b815260040161061c9061428a565b60405180910390fd5b609880546001600160a01b0319166001600160a01b0392909216919091179055565b61064f611232565b61065882611278565b6106638483336112c0565b8060000361068457604051635b4fd3b360e01b815260040160405180910390fd5b60006040518060800160405280868152602001858152602001846001600160a01b031681526020018381525090506106be8160003361131a565b609a5485907f8e525ab69736fcdb30f1e5d5e2630d9f20060b861b8be385f2f37ef0cbe9a0d590339085906001600160a01b038881169116146107015787610704565b60015b604080516001600160a01b0394851681526020810193909352820152908616606082015260800160405180910390a25050505050565b6098546001600160a01b031633146107645760405162461bcd60e51b815260040161061c9061428a565b6001600160a01b038316600090815260cd60209081526040808320858452909152902060018101546107979083906142c6565b600190910155505050565b609960009054906101000a90046001600160a01b03166001600160a01b0316638da5cb5b6040518163ffffffff1660e01b8152600401602060405180830381865afa1580156107f5573d6000803e3d6000fd5b505050506040513d601f19601f82011682018060405250810190610819919061426d565b6001600160a01b0316336001600160a01b03161461087557604051630233214d60e21b81526020600482015260186024820152772737ba1026b4b73a1023b7b63210223ab9ba1037bbb732b960411b604482015260640161061c565b61087d6118c3565b565b6098546001600160a01b031633146108a95760405162461bcd60e51b815260040161061c9061428a565b604080516060810182526001600160a01b0394851681529215156020808501918252848301938452968516600090815260cd8852828120968152959096529093209051815494511515600160a01b026001600160a81b031990951692169190911792909217825551600190910155565b6098546001600160a01b031633146109435760405162461bcd60e51b815260040161061c9061428a565b6001600160a01b03909216600090815260cd60209081526040808320938352929052208054911515600160a01b0260ff60a01b19909216919091179055565b61098a61191d565b6109978160400151611278565b6109aa8160000151826040015133611976565b6109bd8160000151826040015133611b5c565b609b5460408201516001916001600160a01b039081169116036109f457506020810151815160408301516109f49190308433611bcc565b6040808301516001600160a01b03908116600090815260cc6020908152838220865183528152838220338352815290839020835160c08082018652825482526001830154851682850152600283015482870152600383015460ff90811615156060808501919091526004850154608080860191825289519485018a5260058701548552600687015497850197909752600786015498840198909852600885015490961695820195909552600983015493810193909352600a90910154909216151560a0828101919091528201529051610ace9083906142c6565b60808201526060810151600090610ae490611cc8565b84516020860151604051630208d92960e11b81529293506001600160a01b03841692630411b25292610b1e923092339291906004016142d9565b600060405180830381600087803b158015610b3857600080fd5b505af1158015610b4c573d6000803e3d6000fd5b505050508160800151600003610bf4576040808501516001600160a01b0316600090815260cc602090815282822087518352815282822033835290529081208181556001810180546001600160a01b03199081169091556002820183905560038201805460ff19908116909155600483018490556005830184905560068301849055600783018490556008830180549092169091556009820192909255600a01805490911690555b835160408086015181513381526001600160a01b0390911660208201527febe8b448e5424c1bb0d7e6346bca16c31cab0d8c19810c92a15cf2da28d88d51910160405180910390a2505050610c496001606555565b50565b610c49813334611cfe565b609960009054906101000a90046001600160a01b03166001600160a01b0316638da5cb5b6040518163ffffffff1660e01b8152600401602060405180830381865afa158015610caa573d6000803e3d6000fd5b505050506040513d601f19601f82011682018060405250810190610cce919061426d565b6001600160a01b0316336001600160a01b031614610d2a57604051630233214d60e21b81526020600482015260186024820152772737ba1026b4b73a1023b7b63210223ab9ba1037bbb732b960411b604482015260640161061c565b61087d611d6d565b610d3b82611278565b610d46848383611976565b610d51848383611b5c565b60008311610d7257604051635b4fd3b360e01b815260040160405180910390fd5b6001600160a01b03828116600081815260cc60209081526040808320898452825280832094861683529381529083902060020186905582513381529081018690529182015284907ffd465b0ad7019b61e2251da8fb7210e81a99644805c9f5f0a4b6577ce339d26d9060600160405180910390a250505050565b600054610100900460ff1615808015610e0c5750600054600160ff909116105b80610e265750303b158015610e26575060005460ff166001145b610e895760405162461bcd60e51b815260206004820152602e60248201527f496e697469616c697a61626c653a20636f6e747261637420697320616c72656160448201526d191e481a5b9a5d1a585b1a5e995960921b606482015260840161061c565b6000805460ff191660011790558015610eac576000805461ff0019166101001790555b610eb7848484611da6565b8015610efd576000805461ff0019169055604051600181527f7f26b83ff96e1f2b6a682f133852f6798a09c465da95921460cefb38474024989060200160405180910390a15b50505050565b610f0b61191d565b610f13611232565b8451610f1e90611278565b60008560c0015111610f6b5760405162461bcd60e51b8152602060048201526016602482015275125b9d985b1a5908185b5bdd5b9d081d1bc81b5a5b9d60521b604482015260640161061c565b60008111610fb35760405162461bcd60e51b8152602060048201526015602482015274496e76616c696420616d6f756e7420746f2062757960581b604482015260640161061c565b610120850151600090815260ce602052604090205460ff16156110185760405162461bcd60e51b815260206004820152601e60248201527f436f6c6c6563746f72204d696e7420496420616c726561647920757365640000604482015260640161061c565b60c0850151609a548651600092916001600160a01b0390811691160361104d575050609a546001600160a01b0316600161105c565b609b546001600160a01b031691505b808311156110a45760405162461bcd60e51b8152602060048201526015602482015274496e76616c696420616d6f756e7420746f2062757960581b604482015260640161061c565b6110ae8787611e9c565b609954604080516363ffab3160e01b81529051611124926001600160a01b0316916363ffab319160048083019260209291908290030181865afa1580156110f9573d6000803e3d6000fd5b505050506040513d601f19601f8201168201806040525081019061111d919061426d565b8786611f39565b6111645760405162461bcd60e51b8152602060048201526011602482015270496e76616c6964207369676e617475726560781b604482015260640161061c565b6111738760e001518787611f39565b6111b35760405162461bcd60e51b8152602060048201526011602482015270496e76616c6964207369676e617475726560781b604482015260640161061c565b60008760800151516000036111d3576111cc8389612087565b90506111e0565b6111dd8389612126565b90505b6111ea8189612184565b6111ff81858a600001518b60e00151346121cf565b505050610120850151600090815260ce60205260409020805460ff1916600117905561122b6001606555565b5050505050565b60335460ff161561087d5760405162461bcd60e51b815260206004820152601060248201526f14185d5cd8589b194e881c185d5cd95960821b604482015260640161061c565b609a54609b546001600160a01b0383811692811683149291161480158161129d575081155b156112bb5760405163044cdaef60e31b815260040160405180910390fd5b505050565b6001600160a01b03808316600090815260cc60209081526040808320878452825280832093851683529290522060040154156112bb57604051634f0224bf60e11b81526001600160a01b038316600482015260240161061c565b609a54604084015160009182916001916001600160a01b0390811691160361135f5785516113489085612211565b609a546001600160a01b0316925060019150611389565b61137286600001518760200151866122c8565b50609b5460208601516001600160a01b0390911692505b6001600160a01b03838116600090815260cd602090815260408083208a5184529091529020541661152957609b546001906001600160a01b039081169085160361144557609b548751604051627eeac760e11b81526001600160a01b038881166004830152602482019290925291169062fdd58e90604401602060405180830381865afa15801561141e573d6000803e3d6000fd5b505050506040513d601f19601f820116820180604052508101906114429190614302565b90505b604080516060810182526001600160a01b03878116808352600060208085018281528587018881528b8616845260cd83528784208f5185529092528683209551865491511515600160a01b026001600160a81b031990921690861617178555516001909401939093556098548b8501518c51955163492bb9a560e01b8152908416600482015260248101959095526044850191909152606484019290925260848301849052169063492bb9a59060a401600060405180830381600087803b15801561150f57600080fd5b505af1158015611523573d6000803e3d6000fd5b50505050505b6001600160a01b03838116600081815260cd602090815260408083208b5184528252808320815160608101835281548088168252600160a01b900460ff1615159381019390935260010154828201526098548b5191516374ae71f560e11b81526004810195909552602485019190915288851660448501529093919291169063e95ce3ea9060640161016060405180830381865afa1580156115cf573d6000803e3d6000fd5b505050506040513d601f19601f820116820180604052508101906115f3919061431b565b509450505050508160200151158015611618575081516001600160a01b038781169116145b1561168057816040015181896020015161163291906143e3565b11156116805760405162461bcd60e51b815260206004820152601f60248201527f496e76616c696420616d6f756e7420666f72207072696d6172792073616c6500604482015260640161061c565b60006040518060c00160405280898152602001600081526020016000815260200160006001600160a01b03168152602001600081526020016000151581525090506040518060c001604052808a600001518152602001886001600160a01b031681526020018a60600151815260200186151581526020018581526020018281525060cc60008b604001516001600160a01b03166001600160a01b0316815260200190815260200160002060008b6000015181526020019081526020016000206000896001600160a01b03166001600160a01b031681526020019081526020016000206000820151816000015560208201518160010160006101000a8154816001600160a01b0302191690836001600160a01b031602179055506040820151816002015560608201518160030160006101000a81548160ff0219169083151502179055506080820151816004015560a08201518160050160008201518160000155602082015181600101556040820151816002015560608201518160030160006101000a8154816001600160a01b0302191690836001600160a01b031602179055506080820151816004015560a08201518160050160006101000a81548160ff0219169083151502179055505050905050856001600160a01b0316630411b25288308c60000151886040518563ffffffff1660e01b815260040161188694939291906142d9565b600060405180830381600087803b1580156118a057600080fd5b505af11580156118b4573d6000803e3d6000fd5b50505050505050505050505050565b6118cb611232565b6033805460ff191660011790557f62e78cea01bee320cd4e420270b5ea74000d11b0c9f74754ebdbfc544b05a2586119003390565b6040516001600160a01b03909116815260200160405180910390a1565b60026065540361196f5760405162461bcd60e51b815260206004820152601f60248201527f5265656e7472616e637947756172643a207265656e7472616e742063616c6c00604482015260640161061c565b6002606555565b6001600160a01b03808316600090815260cc60209081526040808320878452825280832093851683529290529081206004015490036119ee57604051635e2decc560e11b8152600481018490523060248201526001600160a01b0380841660448301528216606482015233608482015260a40161061c565b609a546001600160a01b038381169116148015611a7f5750609a546040516331a9108f60e11b81526004810185905230916001600160a01b031690636352211e90602401602060405180830381865afa158015611a4f573d6000803e3d6000fd5b505050506040513d601f19601f82011682018060405250810190611a73919061426d565b6001600160a01b031614155b15611aa8576040516343b715f760e01b81526001600160a01b038316600482015260240161061c565b609b546001600160a01b038381169116148015611b335750609b54604051627eeac760e11b8152306004820152602481018590526001600160a01b039091169062fdd58e90604401602060405180830381865afa158015611b0d573d6000803e3d6000fd5b505050506040513d601f19601f82011682018060405250810190611b319190614302565b155b156112bb576040516343b715f760e01b81526001600160a01b038316600482015260240161061c565b6001600160a01b03828116600090815260cc60209081526040808320878452825280832085851684529091529020600101541633146112bb57604051630233214d60e21b815260206004820152600b60248201526a4e6f742073656c6c65722160a81b604482015260640161061c565b609b546001600160a01b038581169116148015611c595750609b54604051627eeac760e11b81526001600160a01b038581166004830152602482018890528492169062fdd58e90604401602060405180830381865afa158015611c33573d6000803e3d6000fd5b505050506040513d601f19601f82011682018060405250810190611c579190614302565b105b15611c77576040516305f1715b60e51b815260040160405180910390fd5b6001600160a01b03808516600090815260cc6020908152604080832089845282528083209385168352929052206004015482111561122b576040516305f1715b60e51b815260040160405180910390fd5b60008115611ce1575050609a546001600160a01b031690565b5050609b546001600160a01b031690565b919050565b6001606555565b611d15836000015184604001518560600151611976565b611d228360400151611278565b611d3f836000015184604001513086602001518760600151611bcc565b6000611d4a8461239e565b6060810151909150600190611d60575060208401515b61122b8286858785612478565b611d75612560565b6033805460ff191690557f5db9ee0a495bf2e6ff9c91a7834c1ba4fdd244a5e8aa4e537bd38aeae4b073aa33611900565b600054610100900460ff16611dcd5760405162461bcd60e51b815260040161061c906143f6565b6001600160a01b03831615801590611ded57506001600160a01b03821615155b8015611e0157506001600160a01b03811615155b611e4d5760405162461bcd60e51b815260206004820152601f60248201527f636f6e747261637420616464726573732063616e6e6f74206265207a65726f00604482015260640161061c565b611e556125a9565b611e5d6125d8565b609980546001600160a01b039485166001600160a01b031991821617909155609a805493851693821693909317909255609b8054919093169116179055565b6000611ea783612607565b90506000611eb3612668565b604051909150600090611ed890601960f81b90600160f81b9085908790602001614487565b60408051601f198184030181529190528051602090910120905080848114611f315760405162461bcd60e51b815260206004820152600c60248201526b092dcecc2d8d2c840d0c2e6d60a31b604482015260640161061c565b505050505050565b6040517f19457468657265756d205369676e6564204d6573736167653a0a3332000000006020820152603c81018390526000908190605c0160405160208183030381529060405280519060200120905060008060008551604114611fdf5760405162461bcd60e51b815260206004820152601860248201527f496e76616c6964207369676e6174757265206c656e6774680000000000000000604482015260640161061c565b50505060208301516040840151606085015160001a601b81101561200b57612008601b826144c0565b90505b6040805160008082526020820180845287905260ff841692820192909252606081018590526080810184905260019060a0016020604051602081039080840390855afa15801561205f573d6000803e3d6000fd5b5050604051601f1901516001600160a01b03908116908b161496505050505050509392505050565b600080836001600160a01b031663ccf7aaa9846020015185604001518660c001518760e0015188606001518961012001516040518763ffffffff1660e01b81526004016120d9969594939291906144d9565b6020604051808303816000875af11580156120f8573d6000803e3d6000fd5b505050506040513d601f19601f8201168201806040525081019061211c9190614302565b9150505b92915050565b600080836001600160a01b031663261050238460200151856040015186608001518760a001518860c001518960e001518a606001518b61012001516040518963ffffffff1660e01b81526004016120d99897969594939291906145a3565b600060405180608001604052808481526020018360c00151815260200183600001516001600160a01b0316815260200183610100015181525090506112bb8160008460e0015161131a565b60006040518060800160405280878152602001868152602001856001600160a01b03168152602001846001600160a01b03168152509050611f31813384611cfe565b609a546040516331a9108f60e11b8152600481018490526001600160a01b03838116921690636352211e90602401602060405180830381865afa15801561225c573d6000803e3d6000fd5b505050506040513d601f19601f82011682018060405250810190612280919061426d565b6001600160a01b0316146122c457604051630233214d60e21b815260206004820152600a6024820152694e6f74206f776e65722160b01b604482015260640161061c565b5050565b609b54604051627eeac760e11b81526001600160a01b038381166004830152602482018690528492169062fdd58e90604401602060405180830381865afa158015612317573d6000803e3d6000fd5b505050506040513d601f19601f8201168201806040525081019061233b9190614302565b10156112bb57604051630233214d60e21b815260206004820152602b60248201527f4e6f74206f776e6572206f72206e6f742068617320656e6f75676820746f6b6560448201526a6e207175616e746974792160a81b606482015260840161061c565b6123a66138d7565b506040808201516001600160a01b03908116600090815260cc602090815283822085518352815283822060609586015184168352815290839020835160c08082018652825482526001830154851682850152600283015482870152600383015460ff90811615158389015260048401546080808501919091528751928301885260058501548352600685015495830195909552600784015496820196909652600883015490941695840195909552600981015491830191909152600a0154909116151560a08281019190915282015290565b6040848101516001600160a01b03908116600090815260cd6020908152838220895183528152908390208351606080820186528254808616808452600160a01b90910460ff16151594830194909452600190920154948101949094528701519091161480156124e8575080602001515b8061250d575084606001516001600160a01b031681600001516001600160a01b031614155b1561253b5761252a866040015183868960a00151600001516127b8565b612536868686866127ec565b611f31565b612553866040015183868960a0015160000151612a54565b611f318686868686612af9565b60335460ff1661087d5760405162461bcd60e51b815260206004820152601460248201527314185d5cd8589b194e881b9bdd081c185d5cd95960621b604482015260640161061c565b600054610100900460ff166125d05760405162461bcd60e51b815260040161061c906143f6565b61087d612f54565b600054610100900460ff166125ff5760405162461bcd60e51b815260040161061c906143f6565b61087d612f7b565b8051602080830151604080850151606086810151608088015160a089015160c08a015160e08b01516101008c01516101208d01519851969b60009b6126519b919a91999801614625565b60408051601f198184030181529190529392505050565b6000806040516020016126df907f454950373132446f6d61696e28737472696e67206e616d652c737472696e672081527f76657273696f6e2c75696e7432353620636861696e49642c6164647265737320602082015271766572696679696e67436f6e74726163742960701b604082015260520190565b60408051601f198184030181528282528051602091820120838301835260148452734d696e74476f6c6444757374536574507269636560601b938201939093528151808301835260058152640312e302e360dc1b908201528151808201939093527fbe74b17595f70ba17b4a80a8e5cc55e44e5bc9477a22afa4c2b461b1cc0615df838301527f06c015bd22b4c69690933c1058878ebdfef31f9aaae40bbe86d8a09fe1b2972c60608401524660808401523060a0808501919091528251808503909101815260c0909301909152815191012092915050565b8281156127c3575060015b6127cd81866146ba565b831461122b5760405163166ef78f60e21b815260040160405180910390fd5b60006127fb8560600151611cc8565b905061280b609780546001019055565b600080600068056bc75e2d63100000609960009054906101000a90046001600160a01b03166001600160a01b0316631cf7f8186040518163ffffffff1660e01b8152600401602060405180830381865afa15801561286d573d6000803e3d6000fd5b505050506040513d601f19601f820116820180604052508101906128919190614302565b61289b90886146ba565b6128a591906146d1565b87516040516388ccb36560e01b8152600481019190915290935068056bc75e2d63100000906001600160a01b038616906388ccb36590602401602060405180830381865afa1580156128fb573d6000803e3d6000fd5b505050506040513d601f19601f8201168201806040525081019061291f9190614302565b61292990886146ba565b61293391906146d1565b915061293f82846143e3565b61294990876142c6565b905061295c848989848660008c8c612fae565b609960009054906101000a90046001600160a01b03166001600160a01b0316638da5cb5b6040518163ffffffff1660e01b8152600401602060405180830381865afa1580156129af573d6000803e3d6000fd5b505050506040513d601f19601f820116820180604052508101906129d3919061426d565b6001600160a01b03166108fc849081150290604051600060405180830381858888f19350505050158015612a0b573d6000803e3d6000fd5b5087602001516001600160a01b03166108fc829081150290604051600060405180830381858888f19350505050158015612a49573d6000803e3d6000fd5b505050505050505050565b828115612a5f575060015b6000612a6b82876146ba565b905060006064612a7c8360036146ba565b612a8691906146d1565b90506000612a9482846143e3565b9050808614158015612aa4575084155b15612ac25760405163166ef78f60e21b815260040160405180910390fd5b8086108015612ad15750600085115b15612aef5760405163166ef78f60e21b815260040160405180910390fd5b5050505050505050565b6000612b088660600151611cc8565b6040808701516001600160a01b0316600090815260cd602090815282822089518352905220600181015491925090612b419084906142c6565b6001820155609854604087810151885191516302fa350360e41b81526001600160a01b03918216600482015260248101929092526044820186905290911690632fa3503090606401600060405180830381600087803b158015612ba357600080fd5b505af1158015612bb7573d6000803e3d6000fd5b50508751604051631f7b417360e21b81526004810191909152602481018690526001600160a01b0385169250637ded05cc9150604401600060405180830381600087803b158015612c0757600080fd5b505af1158015612c1b573d6000803e3d6000fd5b505050508060010154600003612d0f57805460ff60a01b1916600160a01b17815560985460408781015188519151630c1cfa1d60e31b81526001600160a01b039182166004820152602481019290925260016044830152909116906360e7d0e890606401600060405180830381600087803b158015612c9957600080fd5b505af1158015612cad573d6000803e3d6000fd5b5050875160405163129e6ad160e31b815260048101919091526001600160a01b03851692506394f356889150602401600060405180830381600087803b158015612cf657600080fd5b505af1158015612d0a573d6000803e3d6000fd5b505050505b612d1d609780546001019055565b60008080680595698248593c0000612d3e8968056bc75e2d631000006146ba565b612d4891906146d1565b905068056bc75e2d63100000609960009054906101000a90046001600160a01b03166001600160a01b03166396f1116b6040518163ffffffff1660e01b8152600401602060405180830381865afa158015612da7573d6000803e3d6000fd5b505050506040513d601f19601f82011682018060405250810190612dcb9190614302565b612dd590836146ba565b612ddf91906146d1565b925068056bc75e2d63100000609960009054906101000a90046001600160a01b03166001600160a01b031663f103eaaf6040518163ffffffff1660e01b8152600401602060405180830381865afa158015612e3e573d6000803e3d6000fd5b505050506040513d601f19601f82011682018060405250810190612e629190614302565b612e6c90836146ba565b612e7691906146d1565b9150612e92858b8b612e8887866142c6565b866001878e612fae565b609960009054906101000a90046001600160a01b03166001600160a01b0316638da5cb5b6040518163ffffffff1660e01b8152600401602060405180830381865afa158015612ee5573d6000803e3d6000fd5b505050506040513d601f19601f82011682018060405250810190612f09919061426d565b6001600160a01b03166108fc612f1f85856143e3565b6040518115909202916000818181858888f19350505050158015612f47573d6000803e3d6000fd5b5050505050505050505050565b600054610100900460ff16611cf75760405162461bcd60e51b815260040161061c906143f6565b600054610100900460ff16612fa25760405162461bcd60e51b815260040161061c906143f6565b6033805460ff19169055565b8551604051632cdd939d60e21b81526000916001600160a01b038b169163b3764e7491612fe19160040190815260200190565b602060405180830381865afa158015612ffe573d6000803e3d6000fd5b505050506040513d601f19601f82011682018060405250810190613022919061426d565b90508315613031575060608601515b8651604051635a49543960e01b815260048101919091526001600160a01b038a1690635a49543990602401602060405180830381865afa158015613079573d6000803e3d6000fd5b505050506040513d601f19601f8201168201806040525081019061309d91906146f3565b156130b8576130b289888888858989896130db565b50612aef565b83156130cc576130b2898989898787613154565b612a49898883888a8888613207565b86516020880151604051630208d92960e11b81526001600160a01b038b1692630411b25292613112923092879290916004016142d9565b600060405180830381600087803b15801561312c57600080fd5b505af1158015613140573d6000803e3d6000fd5b50505050612aef8686868b8b8888886132bc565b83516020850151604051630208d92960e11b81526001600160a01b03891692630411b2529261318b923092879290916004016142d9565b600060405180830381600087803b1580156131a557600080fd5b505af11580156131b9573d6000803e3d6000fd5b5050505084602001516001600160a01b03166108fc849081150290604051600060405180830381858888f193505050501580156131fa573d6000803e3d6000fd5b50611f3184848484613641565b85516020870151604051630208d92960e11b81526001600160a01b038a1692630411b2529261323e923092879290916004016142d9565b600060405180830381600087803b15801561325857600080fd5b505af115801561326c573d6000803e3d6000fd5b50506040516001600160a01b038816925086156108fc02915086906000818181858888f193505050501580156132a6573d6000803e3d6000fd5b506132b3868484846136b8565b50505050505050565b60006132c78561239e565b90508784156132d35750885b855160405163d2fa735960e01b81526000916001600160a01b038a169163d2fa7359916133069160040190815260200190565b602060405180830381865afa158015613323573d6000803e3d6000fd5b505050506040513d601f19601f820116820180604052508101906133479190614302565b8751604051635fd3482160e01b8152600481019190915260006024820181905291925068056bc75e2d63100000906001600160a01b038b1690635fd3482190604401602060405180830381865afa1580156133a6573d6000803e3d6000fd5b505050506040513d601f19601f820116820180604052508101906133ca9190614302565b6133d490856146ba565b6133de91906146d1565b6040519091506001600160a01b038b169082156108fc029083906000818181858888f19350505050158015613417573d6000803e3d6000fd5b50609754604080516001600160a01b038d168152602081018490527f609a98e855ab9b9c558801d0cfff67fe2f48fac8035af17d1bf714223c58526d910160405180910390a260015b8281101561361b578851604051635fd3482160e01b815268056bc75e2d63100000916001600160a01b038d1691635fd34821916134aa918690600401918252602082015260400190565b602060405180830381865afa1580156134c7573d6000803e3d6000fd5b505050506040513d601f19601f820116820180604052508101906134eb9190614302565b6134f590866146ba565b6134ff91906146d1565b915060008a6001600160a01b031663cc3702f18b6000015160018561352491906142c6565b6040516001600160e01b031960e085901b16815260048101929092526024820152604401602060405180830381865afa158015613565573d6000803e3d6000fd5b505050506040513d601f19601f82011682018060405250810190613589919061426d565b6040519091506001600160a01b0382169084156108fc029085906000818181858888f193505050501580156135c2573d6000803e3d6000fd5b50609754604080516001600160a01b0384168152602081018690527f609a98e855ab9b9c558801d0cfff67fe2f48fac8035af17d1bf714223c58526d910160405180910390a2508061361381614710565b915050613460565b5061362588613721565b61363388858e8a8a8a613820565b505050505050505050505050565b61364a84613721565b835160975460608601516020870151609a546040808a015190517f53ef379528a5a147b7a0ce05a808805f4f1ea6931d042adf0309f2fad1d36cc8946136aa94909389938b938d93926001600160a01b0392831692169190911490614729565b60405180910390a350505050565b6136c184613721565b835160975460608601516020870151609a546040808a015190517fca9d1f82df397d778b10d768c90a09b925bd99955e7d9eb916db42d506d4bb7f946136aa94909389938b938d93926001600160a01b0392831692169190911490614729565b6040808201516001600160a01b03908116600090815260cc6020908152838220855183528152838220606086015190931682529182529190912090820151600482015461376e91906142c6565b600482018190556000036122c457506040818101516001600160a01b03908116600090815260cc6020908152838220855183528152838220606090950151909216815292905281208181556001810180546001600160a01b03199081169091556002820183905560038201805460ff19908116909155600483018490556005830184905560068301849055600783018490556008830180549092169091556009820192909255600a0180549091169055565b821561387d5785516097547f53ef379528a5a147b7a0ce05a808805f4f1ea6931d042adf0309f2fad1d36cc888606001518486898c602001518c6060015160405161387096959493929190614729565b60405180910390a3611f31565b85516097547fca9d1f82df397d778b10d768c90a09b925bd99955e7d9eb916db42d506d4bb7f88606001518486898c602001518c606001516040516138c796959493929190614729565b60405180910390a3505050505050565b6040518060c001604052806000815260200160006001600160a01b0316815260200160008152602001600015158152602001600081526020016139546040518060c0016040528060008152602001600081526020016000815260200160006001600160a01b03168152602001600081526020016000151581525090565b905290565b60006020828403121561396b57600080fd5b81356001600160e01b03198116811461398357600080fd5b9392505050565b6001600160a01b0381168114610c4957600080fd5b8035611cf28161398a565b6000602082840312156139bc57600080fd5b81356139838161398a565b600080600080608085870312156139dd57600080fd5b843593506020850135925060408501356139f68161398a565b9396929550929360600135925050565b60008083601f840112613a1857600080fd5b5081356001600160401b03811115613a2f57600080fd5b602083019150836020828501011115613a4757600080fd5b9250929050565b600080600080600060808688031215613a6657600080fd5b8535613a718161398a565b94506020860135613a818161398a565b93506040860135925060608601356001600160401b03811115613aa357600080fd5b613aaf88828901613a06565b969995985093965092949392505050565b600080600060608486031215613ad557600080fd5b8335613ae08161398a565b95602085013595506040909401359392505050565b8015158114610c4957600080fd5b600080600080600060a08688031215613b1b57600080fd5b8535613b268161398a565b9450602086013593506040860135613b3d8161398a565b92506060860135613b4d81613af5565b949793965091946080013592915050565b600060208284031215613b7057600080fd5b5035919050565b60008060408385031215613b8a57600080fd5b8235613b958161398a565b946020939093013593505050565b600080600060608486031215613bb857600080fd5b8335613bc38161398a565b9250602084013591506040840135613bda81613af5565b809150509250925092565b634e487b7160e01b600052604160045260246000fd5b60405161014081016001600160401b0381118282101715613c1e57613c1e613be5565b60405290565b60405160c081016001600160401b0381118282101715613c1e57613c1e613be5565b604051601f8201601f191681016001600160401b0381118282101715613c6e57613c6e613be5565b604052919050565b600060608284031215613c8857600080fd5b604051606081018181106001600160401b0382111715613caa57613caa613be5565b806040525082358152602083013560208201526040830135613ccb8161398a565b60408201529392505050565b600060808284031215613ce957600080fd5b604051608081018181106001600160401b0382111715613d0b57613d0b613be5565b806040525082358152602083013560208201526040830135613d2c8161398a565b60408201526060830135613d3f8161398a565b60608201529392505050565b60008083601f840112613d5d57600080fd5b5081356001600160401b03811115613d7457600080fd5b6020830191508360208260051b8501011115613a4757600080fd5b60008060008060008060008060a0898b031215613dab57600080fd5b8835613db68161398a565b97506020890135613dc68161398a565b965060408901356001600160401b0380821115613de257600080fd5b613dee8c838d01613d4b565b909850965060608b0135915080821115613e0757600080fd5b613e138c838d01613d4b565b909650945060808b0135915080821115613e2c57600080fd5b50613e398b828c01613a06565b999c989b5096995094979396929594505050565b60008060008060808587031215613e6357600080fd5b84359350602085013592506040850135613e7c8161398a565b91506060850135613e8c8161398a565b939692955090935050565b600080600060608486031215613eac57600080fd5b8335613eb78161398a565b9250602084013591506040840135613bda8161398a565b600080600060608486031215613ee357600080fd5b8335613eee8161398a565b92506020840135613efe8161398a565b91506040840135613bda8161398a565b60008060008060008060a08789031215613f2757600080fd5b8635613f328161398a565b95506020870135613f428161398a565b9450604087013593506060870135925060808701356001600160401b03811115613f6b57600080fd5b613f7789828a01613a06565b979a9699509497509295939492505050565b600082601f830112613f9a57600080fd5b81356001600160401b03811115613fb357613fb3613be5565b613fc6601f8201601f1916602001613c46565b818152846020838601011115613fdb57600080fd5b816020850160208301376000918101602001919091529392505050565b60006001600160401b0382111561401157614011613be5565b5060051b60200190565b600082601f83011261402c57600080fd5b8135602061404161403c83613ff8565b613c46565b82815260059290921b8401810191818101908684111561406057600080fd5b8286015b848110156140845780356140778161398a565b8352918301918301614064565b509695505050505050565b600082601f8301126140a057600080fd5b813560206140b061403c83613ff8565b82815260059290921b840181019181810190868411156140cf57600080fd5b8286015b8481101561408457803583529183019183016140d3565b600080600080600060a0868803121561410257600080fd5b85356001600160401b038082111561411957600080fd5b90870190610140828a03121561412e57600080fd5b614136613bfb565b61413f8361399f565b815260208301358281111561415357600080fd5b61415f8b828601613f89565b6020830152506040830135604082015260608301358281111561418157600080fd5b61418d8b828601613f89565b6060830152506080830135828111156141a557600080fd5b6141b18b82860161401b565b60808301525060a0830135828111156141c957600080fd5b6141d58b82860161408f565b60a08301525060c083013560c08201526141f160e0840161399f565b60e082015261010083810135908201526101209283013592810192909252909550602087013594506040870135908082111561422c57600080fd5b61423889838a01613f89565b9450606088013591508082111561424e57600080fd5b5061425b88828901613f89565b95989497509295608001359392505050565b60006020828403121561427f57600080fd5b81516139838161398a565b6020808252600c908201526b155b985d5d1a1bdc9a5e995960a21b604082015260600190565b634e487b7160e01b600052601160045260246000fd5b81810381811115612120576121206142b0565b6001600160a01b0394851681529290931660208301526040820152606081019190915260800190565b60006020828403121561431457600080fd5b5051919050565b60008060008060008086880361016081121561433657600080fd5b8751965060208801516143488161398a565b604089015160608a0151919750955061436081613af5565b6080890151909450925060c0609f198201121561437c57600080fd5b50614385613c24565b60a0880151815260c0880151602082015260e088015160408201526101008801516143af8161398a565b606082015261012088015160808201526101408801516143ce81613af5565b8060a083015250809150509295509295509295565b80820180821115612120576121206142b0565b6020808252602b908201527f496e697469616c697a61626c653a20636f6e7472616374206973206e6f74206960408201526a6e697469616c697a696e6760a81b606082015260800190565b6000815180845260005b818110156144675760208185018101518683018201520161444b565b506000602082860101526020601f19601f83011685010191505092915050565b600060ff60f81b8087168352808616602084015250836040830152608060608301526144b66080830184614441565b9695505050505050565b60ff8181168382160190811115612120576121206142b0565b60c0815260006144ec60c0830189614441565b60208301889052604083018790526001600160a01b0386166060840152828103608084015261451b8186614441565b9150508260a0830152979650505050505050565b600081518084526020808501945080840160005b838110156145685781516001600160a01b031687529582019590820190600101614543565b509495945050505050565b600081518084526020808501945080840160005b8381101561456857815187529582019590820190600101614587565b60006101008083526145b78184018c614441565b905089602084015282810360408401526145d1818a61452f565b905082810360608401526145e58189614573565b608084018890526001600160a01b03871660a085015283810360c0850152905061460f8186614441565b9150508260e08301529998505050505050505050565b6001600160a01b038b811682526101406020830181905260009161464b8483018e614441565b91508b60408501528382036060850152614665828c614441565b91508382036080850152614679828b61452f565b915083820360a085015261468d828a614573565b60c08501989098529590951660e08301525061010081019290925261012090910152509695505050505050565b8082028115828204841417612120576121206142b0565b6000826146ee57634e487b7160e01b600052601260045260246000fd5b500490565b60006020828403121561470557600080fd5b815161398381613af5565b600060018201614722576147226142b0565b5060010190565b6001600160a01b03968716815294909516602085015260408401929092526060830152608082015290151560a082015260c0019056fea264697066735822122021365bad1fcd0432d8d8adf9f5c4d267791aac6c34c8f6a91a9826cba851f86464736f6c63430008120033",
  "sourcePath": "/home/snowman/Documents/2023/GoldDustV2/v2-contracts/contracts/marketplace/MintGoldDustSetPrice.sol",
  "compiler": {
    "name": "solc",
    "version": "0.8.18+commit.87f61d96"
  },
  "functionHashes": {
    "collectorMintIdUsed(uint256)": "56e3319d",
    "collectorMintPurchase((address,string,uint256,bytes,address[],uint256[],uint256,address,uint256,uint256),bytes32,bytes,bytes,uint256)": "ff8a166c",
    "delistNft((uint256,uint256,address))": "8ad284d8",
    "idMarketItemsByContractByOwner(address,uint256,address)": "e95ce3ea",
    "initializeChild(address,address,address)": "ef3790db",
    "isSecondarySale(address,uint256)": "5e50314a",
    "itemsSold()": "913e0a48",
    "list(uint256,uint256,address,uint256)": "1502b23b",
    "onERC1155BatchReceived(address,address,uint256[],uint256[],bytes)": "bc197c81",
    "onERC1155Received(address,address,uint256,uint256,bytes)": "f23a6e61",
    "onERC721Received(address,address,uint256,bytes)": "150b7a02",
    "pauseContract()": "439766ce",
    "paused()": "5c975abb",
    "purchaseNft((uint256,uint256,address,address))": "ae93cabe",
    "setMintGoldDustMarketplace(address)": "0319a381",
    "setSecondarySale(address,uint256,address,bool,uint256)": "492bb9a5",
    "supportsInterface(bytes4)": "01ffc9a7",
    "unpauseContract()": "b33712c5",
    "updateListedNft(uint256,uint256,address,address)": "d55755c5",
    "updateSecondarySaleAmount(address,uint256,uint256)": "2fa35030",
    "updateSecondarySaleSold(address,uint256,bool)": "60e7d0e8"
  },
  "gasEstimates": {
    "creation": {
      "codeDepositCost": "3665000",
      "executionCost": "4130",
      "totalCost": "3669130"
    },
    "external": {
      "collectorMintIdUsed(uint256)": "2506",
      "collectorMintPurchase((address,string,uint256,bytes,address[],uint256[],uint256,address,uint256,uint256),bytes32,bytes,bytes,uint256)": "infinite",
      "delistNft((uint256,uint256,address))": "infinite",
      "idMarketItemsByContractByOwner(address,uint256,address)": "infinite",
      "initializeChild(address,address,address)": "infinite",
      "isSecondarySale(address,uint256)": "4945",
      "itemsSold()": "2365",
      "list(uint256,uint256,address,uint256)": "infinite",
      "onERC1155BatchReceived(address,address,uint256[],uint256[],bytes)": "infinite",
      "onERC1155Received(address,address,uint256,uint256,bytes)": "infinite",
      "onERC721Received(address,address,uint256,bytes)": "infinite",
      "pauseContract()": "infinite",
      "paused()": "2382",
      "purchaseNft((uint256,uint256,address,address))": "infinite",
      "setMintGoldDustMarketplace(address)": "infinite",
      "setSecondarySale(address,uint256,address,bool,uint256)": "infinite",
      "supportsInterface(bytes4)": "370",
      "unpauseContract()": "infinite",
      "updateListedNft(uint256,uint256,address,address)": "infinite",
      "updateSecondarySaleAmount(address,uint256,uint256)": "27056",
      "updateSecondarySaleSold(address,uint256,bool)": "infinite"
    },
    "internal": {
      "callCollectorMint(contract MintGoldDustNFT,struct MintGoldDustMarketplace.CollectorMintDTO memory)": "infinite",
      "callPurchase(uint256,uint256,address,address,uint256)": "infinite",
      "callSplitMint(contract MintGoldDustNFT,struct MintGoldDustMarketplace.CollectorMintDTO memory)": "infinite",
      "encodeData(struct MintGoldDustMarketplace.CollectorMintDTO memory)": "infinite",
      "encodeDomainSeparator()": "infinite",
      "generateEIP712Hash(struct MintGoldDustMarketplace.CollectorMintDTO memory,bytes32)": "infinite",
      "listCollectorMint(uint256,struct MintGoldDustMarketplace.CollectorMintDTO memory)": "infinite",
      "verifySignature(address,bytes32,bytes memory)": "infinite"
    }
  }
}