{
    "contractName": "MintGoldDustCompany",
    "abi": [
        {
            "inputs": [],
            "name": "Unauthorized",
            "type": "error"
        },
        {
            "anonymous": false,
            "inputs": [
                {
                    "indexed": true,
                    "internalType": "address",
                    "name": "artistAddress",
                    "type": "address"
                },
                {
                    "indexed": false,
                    "internalType": "bool",
                    "name": "state",
                    "type": "bool"
                }
            ],
            "name": "ArtistWhitelisted",
            "type": "event"
        },
        {
            "anonymous": false,
            "inputs": [
                {
                    "indexed": false,
                    "internalType": "uint8",
                    "name": "version",
                    "type": "uint8"
                }
            ],
            "name": "Initialized",
            "type": "event"
        },
        {
            "anonymous": false,
            "inputs": [
                {
                    "indexed": true,
                    "internalType": "address",
                    "name": "previousOwner",
                    "type": "address"
                },
                {
                    "indexed": true,
                    "internalType": "address",
                    "name": "newOwner",
                    "type": "address"
                }
            ],
            "name": "OwnershipTransferred",
            "type": "event"
        },
        {
            "anonymous": false,
            "inputs": [
                {
                    "indexed": true,
                    "internalType": "address",
                    "name": "validatorAddress",
                    "type": "address"
                },
                {
                    "indexed": false,
                    "internalType": "bool",
                    "name": "state",
                    "type": "bool"
                }
            ],
            "name": "ValidatorAdded",
            "type": "event"
        },
        {
            "inputs": [],
            "name": "auctionDuration",
            "outputs": [
                {
                    "internalType": "uint256",
                    "name": "",
                    "type": "uint256"
                }
            ],
            "stateMutability": "view",
            "type": "function"
        },
        {
            "inputs": [],
            "name": "auctionFinalMinutes",
            "outputs": [
                {
                    "internalType": "uint256",
                    "name": "",
                    "type": "uint256"
                }
            ],
            "stateMutability": "view",
            "type": "function"
        },
        {
            "inputs": [],
            "name": "collectorFee",
            "outputs": [
                {
                    "internalType": "uint256",
                    "name": "",
                    "type": "uint256"
                }
            ],
            "stateMutability": "view",
            "type": "function"
        },
        {
            "inputs": [
                {
                    "internalType": "address",
                    "name": "_owner",
                    "type": "address"
                },
                {
                    "internalType": "uint256",
                    "name": "_primarySaleFeePercent",
                    "type": "uint256"
                },
                {
                    "internalType": "uint256",
                    "name": "_secondarySaleFeePercent",
                    "type": "uint256"
                },
                {
                    "internalType": "uint256",
                    "name": "_collectorFee",
                    "type": "uint256"
                },
                {
                    "internalType": "uint256",
                    "name": "_maxRoyalty",
                    "type": "uint256"
                },
                {
                    "internalType": "uint256",
                    "name": "_auctionDurationInMinutes",
                    "type": "uint256"
                },
                {
                    "internalType": "uint256",
                    "name": "_auctionFinalMinutes",
                    "type": "uint256"
                }
            ],
            "name": "initialize",
            "outputs": [],
            "stateMutability": "nonpayable",
            "type": "function"
        },
        {
            "inputs": [
                {
                    "internalType": "address",
                    "name": "",
                    "type": "address"
                }
            ],
            "name": "isAddressValidator",
            "outputs": [
                {
                    "internalType": "bool",
                    "name": "",
                    "type": "bool"
                }
            ],
            "stateMutability": "view",
            "type": "function"
        },
        {
            "inputs": [
                {
                    "internalType": "address",
                    "name": "",
                    "type": "address"
                }
            ],
            "name": "isArtistApproved",
            "outputs": [
                {
                    "internalType": "bool",
                    "name": "",
                    "type": "bool"
                }
            ],
            "stateMutability": "view",
            "type": "function"
        },
        {
            "inputs": [],
            "name": "maxRoyalty",
            "outputs": [
                {
                    "internalType": "uint256",
                    "name": "",
                    "type": "uint256"
                }
            ],
            "stateMutability": "view",
            "type": "function"
        },
        {
            "inputs": [],
            "name": "owner",
            "outputs": [
                {
                    "internalType": "address",
                    "name": "",
                    "type": "address"
                }
            ],
            "stateMutability": "view",
            "type": "function"
        },
        {
            "inputs": [],
            "name": "primarySaleFeePercent",
            "outputs": [
                {
                    "internalType": "uint256",
                    "name": "",
                    "type": "uint256"
                }
            ],
            "stateMutability": "view",
            "type": "function"
        },
        {
            "inputs": [],
            "name": "publicKey",
            "outputs": [
                {
                    "internalType": "address",
                    "name": "",
                    "type": "address"
                }
            ],
            "stateMutability": "view",
            "type": "function"
        },
        {
            "inputs": [],
            "name": "renounceOwnership",
            "outputs": [],
            "stateMutability": "nonpayable",
            "type": "function"
        },
        {
            "inputs": [],
            "name": "secondarySaleFeePercent",
            "outputs": [
                {
                    "internalType": "uint256",
                    "name": "",
                    "type": "uint256"
                }
            ],
            "stateMutability": "view",
            "type": "function"
        },
        {
            "inputs": [
                {
                    "internalType": "address",
                    "name": "_mintGoldDustPublicKey",
                    "type": "address"
                }
            ],
            "name": "setPublicKey",
            "outputs": [],
            "stateMutability": "nonpayable",
            "type": "function"
        },
        {
            "inputs": [
                {
                    "internalType": "address",
                    "name": "_address",
                    "type": "address"
                },
                {
                    "internalType": "bool",
                    "name": "_state",
                    "type": "bool"
                }
            ],
            "name": "setValidator",
            "outputs": [],
            "stateMutability": "nonpayable",
            "type": "function"
        },
        {
            "inputs": [
                {
                    "internalType": "bytes4",
                    "name": "interfaceId",
                    "type": "bytes4"
                }
            ],
            "name": "supportsInterface",
            "outputs": [
                {
                    "internalType": "bool",
                    "name": "",
                    "type": "bool"
                }
            ],
            "stateMutability": "view",
            "type": "function"
        },
        {
            "inputs": [
                {
                    "internalType": "address",
                    "name": "newOwner",
                    "type": "address"
                }
            ],
            "name": "transferOwnership",
            "outputs": [],
            "stateMutability": "nonpayable",
            "type": "function"
        },
        {
            "inputs": [
                {
                    "internalType": "address",
                    "name": "_address",
                    "type": "address"
                },
                {
                    "internalType": "bool",
                    "name": "_state",
                    "type": "bool"
                }
            ],
            "name": "whitelist",
            "outputs": [],
            "stateMutability": "nonpayable",
            "type": "function"
        }
    ],
    "bytecode": "608060405234801561001057600080fd5b5061090d806100206000396000f3fe608060405234801561001057600080fd5b506004361061010b5760003560e01c8063715018a6116100a2578063d27d453111610071578063d27d45311461021d578063e55e29ae14610226578063f103eaaf14610249578063f2fde38b14610252578063f59c37081461026557600080fd5b8063715018a6146101e85780638142951a146101f05780638da5cb5b1461020357806396f1116b1461021457600080fd5b80631cf7f818116100de5780631cf7f818146101985780634623c91d146101a157806363ffab31146101b4578063674a12c7146101df57600080fd5b806301ffc9a714610110578063097eb759146101495780630cbf54c81461015e5780631ac2108d14610175575b600080fd5b61013461011e366004610733565b6001600160e01b0319166301ffc9a760e01b1490565b60405190151581526020015b60405180910390f35b61015c610157366004610780565b610278565b005b61016760695481565b604051908152602001610140565b610134610183366004610780565b606d6020526000908152604090205460ff1681565b61016760665481565b61015c6101af36600461079b565b6102d3565b606b546101c7906001600160a01b031681565b6040516001600160a01b039091168152602001610140565b61016760685481565b61015c610363565b61015c6101fe3660046107d7565b610377565b6033546001600160a01b03166101c7565b61016760655481565b610167606a5481565b610134610234366004610780565b606c6020526000908152604090205460ff1681565b61016760675481565b61015c610260366004610780565b6104f0565b61015c61027336600461079b565b610569565b61028061062d565b806001600160a01b0381166102b05760405162461bcd60e51b81526004016102a79061082a565b60405180910390fd5b50606b80546001600160a01b0319166001600160a01b0392909216919091179055565b6102db61062d565b816001600160a01b0381166103025760405162461bcd60e51b81526004016102a79061082a565b6001600160a01b0383166000818152606d6020908152604091829020805460ff191686151590811790915591519182527faaf27cf26658e01c886628b2cce94e155c435b41b448fee53faba88d70601b5b91015b60405180910390a2505050565b61036b61062d565b6103756000610687565b565b600054610100900460ff16158080156103975750600054600160ff909116105b806103b15750303b1580156103b1575060005460ff166001145b6104145760405162461bcd60e51b815260206004820152602e60248201527f496e697469616c697a61626c653a20636f6e747261637420697320616c72656160448201526d191e481a5b9a5d1a585b1a5e995960921b60648201526084016102a7565b6000805460ff191660011790558015610437576000805461ff0019166101001790555b876001600160a01b03811661045e5760405162461bcd60e51b81526004016102a79061082a565b6104666106d9565b61046f89610687565b606588905560668790556067869055606885905561048e846001610861565b60695561049c836001610861565b606a555080156104e6576000805461ff0019169055604051600181527f7f26b83ff96e1f2b6a682f133852f6798a09c465da95921460cefb38474024989060200160405180910390a15b5050505050505050565b6104f861062d565b6001600160a01b03811661055d5760405162461bcd60e51b815260206004820152602660248201527f4f776e61626c653a206e6577206f776e657220697320746865207a65726f206160448201526564647265737360d01b60648201526084016102a7565b61056681610687565b50565b336000908152606d602052604090205460ff168061059157506033546001600160a01b031633145b1561061557816001600160a01b0381166105bd5760405162461bcd60e51b81526004016102a79061082a565b6001600160a01b0383166000818152606c6020908152604091829020805460ff191686151590811790915591519182527fe483935f1ab69ff84a79999d9f8530858aa1e29e3cd84ea3968a9ecf5f44885f9101610356565b6040516282b42960e81b815260040160405180910390fd5b6033546001600160a01b031633146103755760405162461bcd60e51b815260206004820181905260248201527f4f776e61626c653a2063616c6c6572206973206e6f7420746865206f776e657260448201526064016102a7565b603380546001600160a01b038381166001600160a01b0319831681179093556040519116919082907f8be0079c531659141344cd1fd0a4f28419497f9722a3daafe3b4186f6b6457e090600090a35050565b600054610100900460ff166107005760405162461bcd60e51b81526004016102a79061088c565b610375600054610100900460ff1661072a5760405162461bcd60e51b81526004016102a79061088c565b61037533610687565b60006020828403121561074557600080fd5b81356001600160e01b03198116811461075d57600080fd5b9392505050565b80356001600160a01b038116811461077b57600080fd5b919050565b60006020828403121561079257600080fd5b61075d82610764565b600080604083850312156107ae57600080fd5b6107b783610764565b9150602083013580151581146107cc57600080fd5b809150509250929050565b600080600080600080600060e0888a0312156107f257600080fd5b6107fb88610764565b9960208901359950604089013598606081013598506080810135975060a0810135965060c00135945092505050565b60208082526017908201527f61646472657373206973207a65726f2061646472657373000000000000000000604082015260600190565b808202811582820484141761088657634e487b7160e01b600052601160045260246000fd5b92915050565b6020808252602b908201527f496e697469616c697a61626c653a20636f6e7472616374206973206e6f74206960408201526a6e697469616c697a696e6760a81b60608201526080019056fea26469706673582212202551655a82b8ec9fcac52b0a6c8e6706113c575e065e580be44621d700060c0864736f6c63430008120033",
    "sourcePath": "/home/snowman/Documents/2023/GoldDustV2/v2-contracts/contracts/marketplace/MintGoldDustCompany.sol",
    "compiler": {
        "name": "solc",
        "version": "0.8.18+commit.87f61d96"
    },
    "functionHashes": {
        "auctionDuration()": "0cbf54c8",
        "auctionFinalMinutes()": "d27d4531",
        "collectorFee()": "f103eaaf",
        "initialize(address,uint256,uint256,uint256,uint256,uint256,uint256)": "8142951a",
        "isAddressValidator(address)": "1ac2108d",
        "isArtistApproved(address)": "e55e29ae",
        "maxRoyalty()": "674a12c7",
        "owner()": "8da5cb5b",
        "primarySaleFeePercent()": "96f1116b",
        "publicKey()": "63ffab31",
        "renounceOwnership()": "715018a6",
        "secondarySaleFeePercent()": "1cf7f818",
        "setPublicKey(address)": "097eb759",
        "setValidator(address,bool)": "4623c91d",
        "supportsInterface(bytes4)": "01ffc9a7",
        "transferOwnership(address)": "f2fde38b",
        "whitelist(address,bool)": "f59c3708"
    },
    "gasEstimates": {
        "creation": {
            "codeDepositCost": "463400",
            "executionCost": "499",
            "totalCost": "463899"
        },
        "external": {
            "auctionDuration()": "2363",
            "auctionFinalMinutes()": "2317",
            "collectorFee()": "2361",
            "initialize(address,uint256,uint256,uint256,uint256,uint256,uint256)": "infinite",
            "isAddressValidator(address)": "2610",
            "isArtistApproved(address)": "2564",
            "maxRoyalty()": "2384",
            "owner()": "2398",
            "primarySaleFeePercent()": "2384",
            "publicKey()": "2404",
            "renounceOwnership()": "infinite",
            "secondarySaleFeePercent()": "2318",
            "setPublicKey(address)": "26821",
            "setValidator(address,bool)": "28383",
            "supportsInterface(bytes4)": "370",
            "transferOwnership(address)": "28424",
            "whitelist(address,bool)": "30633"
        }
    }
}